:060000000A128A110C280F
:10000800FE00030EF0000A08F1000A128A113528D2
:100018000A128A110F28F50183010A128A1114287D
:10002800F5018316031381018B170B170B160614A2
:1000380008108312031308107503031D20280230CB
:10004800F4004530F300A930F200F20B2928F30B35
:100058002928F40B29283028831203130810F501E6
:100068002028831203130814F501F50A8B10710870
:0C0078008A00700E8300FE0E7E0E090050
:08400000FF3FFF3FFF3FFF3FC0
:02400E00713F00
:00000001FF
